{
  "_format": "hh-sol-artifact-1",
  "contractName": "Raffle",
  "sourceName": "contracts/Raffle.sol",
  "abi": [
    {
      "inputs": [
        {
          "internalType": "address",
          "name": "vrfCoordinatorV2",
          "type": "address"
        },
        {
          "internalType": "uint256",
          "name": "entranceFee",
          "type": "uint256"
        },
        {
          "internalType": "bytes32",
          "name": "gasLane",
          "type": "bytes32"
        },
        {
          "internalType": "uint64",
          "name": "subscriptionId",
          "type": "uint64"
        },
        {
          "internalType": "uint32",
          "name": "callBackGasLimit",
          "type": "uint32"
        }
      ],
      "stateMutability": "nonpayable",
      "type": "constructor"
    },
    {
      "inputs": [
        {
          "internalType": "address",
          "name": "have",
          "type": "address"
        },
        {
          "internalType": "address",
          "name": "want",
          "type": "address"
        }
      ],
      "name": "OnlyCoordinatorCanFulfill",
      "type": "error"
    },
    {
      "inputs": [],
      "name": "Raffle_TransferFailed",
      "type": "error"
    },
    {
      "inputs": [],
      "name": "Raffle__NotEnoughETHEntered",
      "type": "error"
    },
    {
      "anonymous": false,
      "inputs": [
        {
          "indexed": true,
          "internalType": "address",
          "name": "player",
          "type": "address"
        }
      ],
      "name": "RaffleEnter",
      "type": "event"
    },
    {
      "anonymous": false,
      "inputs": [
        {
          "indexed": true,
          "internalType": "uint256",
          "name": "requestId",
          "type": "uint256"
        }
      ],
      "name": "RequestedRaffleWinner",
      "type": "event"
    },
    {
      "anonymous": false,
      "inputs": [
        {
          "indexed": true,
          "internalType": "address",
          "name": "winner",
          "type": "address"
        }
      ],
      "name": "WinnerPicked",
      "type": "event"
    },
    {
      "inputs": [],
      "name": "enterRaffle",
      "outputs": [],
      "stateMutability": "payable",
      "type": "function"
    },
    {
      "inputs": [],
      "name": "getEntranceFee",
      "outputs": [
        {
          "internalType": "uint256",
          "name": "",
          "type": "uint256"
        }
      ],
      "stateMutability": "view",
      "type": "function"
    },
    {
      "inputs": [
        {
          "internalType": "uint256",
          "name": "index",
          "type": "uint256"
        }
      ],
      "name": "getPlayer",
      "outputs": [
        {
          "internalType": "address payable",
          "name": "",
          "type": "address"
        }
      ],
      "stateMutability": "view",
      "type": "function"
    },
    {
      "inputs": [
        {
          "internalType": "address",
          "name": "",
          "type": "address"
        }
      ],
      "name": "getRecentWinner",
      "outputs": [
        {
          "internalType": "address",
          "name": "",
          "type": "address"
        }
      ],
      "stateMutability": "view",
      "type": "function"
    },
    {
      "inputs": [
        {
          "internalType": "uint256",
          "name": "requestId",
          "type": "uint256"
        },
        {
          "internalType": "uint256[]",
          "name": "randomWords",
          "type": "uint256[]"
        }
      ],
      "name": "rawFulfillRandomWords",
      "outputs": [],
      "stateMutability": "nonpayable",
      "type": "function"
    },
    {
      "inputs": [],
      "name": "requestRandomWinner",
      "outputs": [],
      "stateMutability": "nonpayable",
      "type": "function"
    }
  ],
  "bytecode": "0x6101406040523480156200001257600080fd5b5060405162000f9138038062000f9183398181016040528101906200003891906200016e565b848073ffffffffffffffffffffffffffffffffffffffff1660808173ffffffffffffffffffffffffffffffffffffffff1660601b81525050508360a081815250508473ffffffffffffffffffffffffffffffffffffffff1660c08173ffffffffffffffffffffffffffffffffffffffff1660601b815250508260e081815250508167ffffffffffffffff166101008167ffffffffffffffff1660c01b815250508063ffffffff166101208163ffffffff1660e01b815250505050505050620002e9565b6000815190506200010c8162000267565b92915050565b600081519050620001238162000281565b92915050565b6000815190506200013a816200029b565b92915050565b6000815190506200015181620002b5565b92915050565b6000815190506200016881620002cf565b92915050565b600080600080600060a086880312156200018d576200018c62000262565b5b60006200019d88828901620000fb565b9550506020620001b08882890162000129565b9450506040620001c38882890162000112565b9350506060620001d68882890162000157565b9250506080620001e98882890162000140565b9150509295509295909350565b6000620002038262000214565b9050919050565b6000819050919050565b600073ffffffffffffffffffffffffffffffffffffffff82169050919050565b6000819050919050565b600063ffffffff82169050919050565b600067ffffffffffffffff82169050919050565b600080fd5b6200027281620001f6565b81146200027e57600080fd5b50565b6200028c816200020a565b81146200029857600080fd5b50565b620002a68162000234565b8114620002b257600080fd5b50565b620002c0816200023e565b8114620002cc57600080fd5b50565b620002da816200024e565b8114620002e657600080fd5b50565b60805160601c60a05160c05160601c60e0516101005160c01c6101205160e01c610c3e6200035360003960006103b701526000610394015260006103730152600061033701526000818161014d015261023301526000818161017301526101c70152610c3e6000f3fe6080604052600436106100555760003560e01c806309bc33a71461005a5780631fe543e3146100855780632cfcc539146100ae578063522a1f0b146100b8578063e1becba3146100cf578063e55ae4e81461010c575b600080fd5b34801561006657600080fd5b5061006f610149565b60405161007c91906109b0565b60405180910390f35b34801561009157600080fd5b506100ac60048036038101906100a791906107f2565b610171565b005b6100b6610231565b005b3480156100c457600080fd5b506100cd610333565b005b3480156100db57600080fd5b506100f660048036038101906100f1919061076b565b61047c565b60405161010391906108fe565b60405180910390f35b34801561011857600080fd5b50610133600480360381019061012e9190610798565b6104a8565b6040516101409190610919565b60405180910390f35b60007f0000000000000000000000000000000000000000000000000000000000000000905090565b7f000000000000000000000000000000000000000000000000000000000000000073ffffffffffffffffffffffffffffffffffffffff163373ffffffffffffffffffffffffffffffffffffffff161461022357337f00000000000000000000000000000000000000000000000000000000000000006040517f1cf993f400000000000000000000000000000000000000000000000000000000815260040161021a929190610934565b60405180910390fd5b61022d82826104ef565b5050565b7f000000000000000000000000000000000000000000000000000000000000000034101561028b576040517fbd4e069500000000000000000000000000000000000000000000000000000000815260040160405180910390fd5b6000339080600181540180825580915050600190039060005260206000200160009091909190916101000a81548173ffffffffffffffffffffffffffffffffffffffff021916908373ffffffffffffffffffffffffffffffffffffffff1602179055503373ffffffffffffffffffffffffffffffffffffffff167f0805e1d667bddb8a95f0f09880cf94f403fb596ce79928d9f29b74203ba284d460405160405180910390a2565b60007f000000000000000000000000000000000000000000000000000000000000000073ffffffffffffffffffffffffffffffffffffffff16635d3b1d307f00000000000000000000000000000000000000000000000000000000000000007f000000000000000000000000000000000000000000000000000000000000000060037f000000000000000000000000000000000000000000000000000000000000000060016040518663ffffffff1660e01b81526004016103f895949392919061095d565b602060405180830381600087803b15801561041257600080fd5b505af1158015610426573d6000803e3d6000fd5b505050506040513d601f19601f8201168201806040525081019061044a91906107c5565b9050807fcd6e45c8998311cab7e9d4385596cac867e20a0587194b954fa3a731c93ce78b60405160405180910390a250565b6000600160009054906101000a900473ffffffffffffffffffffffffffffffffffffffff169050919050565b60008082815481106104bd576104bc610b54565b5b9060005260206000200160009054906101000a900473ffffffffffffffffffffffffffffffffffffffff169050919050565b600080805490508260008151811061050a57610509610b54565b5b602002602001015161051c9190610af4565b9050600080828154811061053357610532610b54565b5b9060005260206000200160009054906101000a900473ffffffffffffffffffffffffffffffffffffffff16905080600160006101000a81548173ffffffffffffffffffffffffffffffffffffffff021916908373ffffffffffffffffffffffffffffffffffffffff16021790555060008173ffffffffffffffffffffffffffffffffffffffff16476040516105c7906108e9565b60006040518083038185875af1925050503d8060008114610604576040519150601f19603f3d011682016040523d82523d6000602084013e610609565b606091505b5050905080610644576040517fba31c4f300000000000000000000000000000000000000000000000000000000815260040160405180910390fd5b8173ffffffffffffffffffffffffffffffffffffffff167f5b690ec4a06fe979403046eaeea5b3ce38524683c3001f662c8b5a829632f7df60405160405180910390a25050505050565b60006106a161069c846109f0565b6109cb565b905080838252602082019050828560208602820111156106c4576106c3610bb7565b5b60005b858110156106f457816106da8882610741565b8452602084019350602083019250506001810190506106c7565b5050509392505050565b60008135905061070d81610bda565b92915050565b600082601f83011261072857610727610bb2565b5b813561073884826020860161068e565b91505092915050565b60008135905061075081610bf1565b92915050565b60008151905061076581610bf1565b92915050565b60006020828403121561078157610780610bc1565b5b600061078f848285016106fe565b91505092915050565b6000602082840312156107ae576107ad610bc1565b5b60006107bc84828501610741565b91505092915050565b6000602082840312156107db576107da610bc1565b5b60006107e984828501610756565b91505092915050565b6000806040838503121561080957610808610bc1565b5b600061081785828601610741565b925050602083013567ffffffffffffffff81111561083857610837610bbc565b5b61084485828601610713565b9150509250929050565b61085781610a39565b82525050565b61086681610a27565b82525050565b61087581610a4b565b82525050565b6000610888600083610a1c565b915061089382610bd7565b600082019050919050565b6108a781610a55565b82525050565b6108b681610ab1565b82525050565b6108c581610a83565b82525050565b6108d481610a8d565b82525050565b6108e381610a9d565b82525050565b60006108f48261087b565b9150819050919050565b6000602082019050610913600083018461085d565b92915050565b600060208201905061092e600083018461084e565b92915050565b6000604082019050610949600083018561085d565b610956602083018461085d565b9392505050565b600060a082019050610972600083018861086c565b61097f60208301876108da565b61098c604083018661089e565b61099960608301856108cb565b6109a660808301846108ad565b9695505050505050565b60006020820190506109c560008301846108bc565b92915050565b60006109d56109e6565b90506109e18282610ac3565b919050565b6000604051905090565b600067ffffffffffffffff821115610a0b57610a0a610b83565b5b602082029050602081019050919050565b600081905092915050565b6000610a3282610a63565b9050919050565b6000610a4482610a63565b9050919050565b6000819050919050565b600061ffff82169050919050565b600073ffffffffffffffffffffffffffffffffffffffff82169050919050565b6000819050919050565b600063ffffffff82169050919050565b600067ffffffffffffffff82169050919050565b6000610abc82610a55565b9050919050565b610acc82610bc6565b810181811067ffffffffffffffff82111715610aeb57610aea610b83565b5b80604052505050565b6000610aff82610a83565b9150610b0a83610a83565b925082610b1a57610b19610b25565b5b828206905092915050565b7f4e487b7100000000000000000000000000000000000000000000000000000000600052601260045260246000fd5b7f4e487b7100000000000000000000000000000000000000000000000000000000600052603260045260246000fd5b7f4e487b7100000000000000000000000000000000000000000000000000000000600052604160045260246000fd5b600080fd5b600080fd5b600080fd5b600080fd5b6000601f19601f8301169050919050565b50565b610be381610a27565b8114610bee57600080fd5b50565b610bfa81610a83565b8114610c0557600080fd5b5056fea264697066735822122032390d6ebe4a57f0151a251c2d7e26d0a8d5627440270a261b4a390ca9b333dd64736f6c63430008070033",
  "linkReferences": {},
  "deployedLinkReferences": {}
}